{
  "_format": "hh-sol-artifact-1",
  "contractName": "SturanNetwork",
  "sourceName": "contracts/SturanNetwork.sol",
  "abi": [
    {
      "inputs": [
        {
          "internalType": "address",
          "name": "_tokenAddress",
          "type": "address"
        },
        {
          "internalType": "address",
          "name": "initialOwner",
          "type": "address"
        }
      ],
      "stateMutability": "nonpayable",
      "type": "constructor"
    },
    {
      "inputs": [
        {
          "internalType": "address",
          "name": "owner",
          "type": "address"
        }
      ],
      "name": "OwnableInvalidOwner",
      "type": "error"
    },
    {
      "inputs": [
        {
          "internalType": "address",
          "name": "account",
          "type": "address"
        }
      ],
      "name": "OwnableUnauthorizedAccount",
      "type": "error"
    },
    {
      "inputs": [
        {
          "internalType": "address",
          "name": "token",
          "type": "address"
        }
      ],
      "name": "SafeERC20FailedOperation",
      "type": "error"
    },
    {
      "anonymous": false,
      "inputs": [
        {
          "indexed": true,
          "internalType": "uint256",
          "name": "campaignId",
          "type": "uint256"
        },
        {
          "indexed": false,
          "internalType": "string",
          "name": "name",
          "type": "string"
        },
        {
          "indexed": false,
          "internalType": "uint256",
          "name": "totalRaised",
          "type": "uint256"
        }
      ],
      "name": "CampaignClosed",
      "type": "event"
    },
    {
      "anonymous": false,
      "inputs": [
        {
          "indexed": true,
          "internalType": "uint256",
          "name": "campaignId",
          "type": "uint256"
        },
        {
          "indexed": false,
          "internalType": "string",
          "name": "name",
          "type": "string"
        },
        {
          "indexed": false,
          "internalType": "uint256",
          "name": "goal",
          "type": "uint256"
        },
        {
          "indexed": false,
          "internalType": "uint256",
          "name": "duration",
          "type": "uint256"
        }
      ],
      "name": "CampaignCreated",
      "type": "event"
    },
    {
      "anonymous": false,
      "inputs": [
        {
          "indexed": true,
          "internalType": "uint256",
          "name": "campaignId",
          "type": "uint256"
        },
        {
          "indexed": true,
          "internalType": "address",
          "name": "contributor",
          "type": "address"
        },
        {
          "indexed": false,
          "internalType": "uint256",
          "name": "amount",
          "type": "uint256"
        }
      ],
      "name": "ContributionMade",
      "type": "event"
    },
    {
      "anonymous": false,
      "inputs": [
        {
          "indexed": true,
          "internalType": "uint256",
          "name": "campaignId",
          "type": "uint256"
        },
        {
          "indexed": true,
          "internalType": "address",
          "name": "contributor",
          "type": "address"
        },
        {
          "indexed": false,
          "internalType": "uint256",
          "name": "amount",
          "type": "uint256"
        }
      ],
      "name": "ContributionRefunded",
      "type": "event"
    },
    {
      "anonymous": false,
      "inputs": [
        {
          "indexed": true,
          "internalType": "address",
          "name": "previousOwner",
          "type": "address"
        },
        {
          "indexed": true,
          "internalType": "address",
          "name": "newOwner",
          "type": "address"
        }
      ],
      "name": "OwnershipTransferred",
      "type": "event"
    },
    {
      "anonymous": false,
      "inputs": [
        {
          "indexed": true,
          "internalType": "address",
          "name": "user",
          "type": "address"
        }
      ],
      "name": "RemoveFromWithlist",
      "type": "event"
    },
    {
      "anonymous": false,
      "inputs": [
        {
          "indexed": true,
          "internalType": "address",
          "name": "user",
          "type": "address"
        }
      ],
      "name": "UserWithlisted",
      "type": "event"
    },
    {
      "inputs": [
        {
          "internalType": "string",
          "name": "name",
          "type": "string"
        },
        {
          "internalType": "uint256",
          "name": "goal",
          "type": "uint256"
        },
        {
          "internalType": "uint256",
          "name": "maxContribution",
          "type": "uint256"
        },
        {
          "internalType": "uint256",
          "name": "maxContributor",
          "type": "uint256"
        },
        {
          "internalType": "uint256",
          "name": "duration",
          "type": "uint256"
        }
      ],
      "name": "addCampaign",
      "outputs": [],
      "stateMutability": "nonpayable",
      "type": "function"
    },
    {
      "inputs": [
        {
          "internalType": "address",
          "name": "user",
          "type": "address"
        }
      ],
      "name": "addWhiteListedUser",
      "outputs": [],
      "stateMutability": "nonpayable",
      "type": "function"
    },
    {
      "inputs": [
        {
          "internalType": "uint256",
          "name": "",
          "type": "uint256"
        }
      ],
      "name": "campaigns",
      "outputs": [
        {
          "internalType": "uint256",
          "name": "campaignId",
          "type": "uint256"
        },
        {
          "internalType": "string",
          "name": "name",
          "type": "string"
        },
        {
          "internalType": "uint256",
          "name": "goal",
          "type": "uint256"
        },
        {
          "internalType": "uint256",
          "name": "maxContribution",
          "type": "uint256"
        },
        {
          "internalType": "uint256",
          "name": "maxContributor",
          "type": "uint256"
        },
        {
          "internalType": "uint256",
          "name": "duration",
          "type": "uint256"
        },
        {
          "internalType": "uint256",
          "name": "startTime",
          "type": "uint256"
        },
        {
          "internalType": "uint256",
          "name": "endTime",
          "type": "uint256"
        },
        {
          "internalType": "bool",
          "name": "isOpen",
          "type": "bool"
        }
      ],
      "stateMutability": "view",
      "type": "function"
    },
    {
      "inputs": [
        {
          "internalType": "uint256",
          "name": "campaignId",
          "type": "uint256"
        }
      ],
      "name": "closeCampaign",
      "outputs": [],
      "stateMutability": "nonpayable",
      "type": "function"
    },
    {
      "inputs": [
        {
          "internalType": "uint256",
          "name": "campaignId",
          "type": "uint256"
        },
        {
          "internalType": "uint256",
          "name": "amount",
          "type": "uint256"
        }
      ],
      "name": "contribute",
      "outputs": [],
      "stateMutability": "nonpayable",
      "type": "function"
    },
    {
      "inputs": [],
      "name": "getCampaignCount",
      "outputs": [
        {
          "internalType": "uint256",
          "name": "",
          "type": "uint256"
        }
      ],
      "stateMutability": "view",
      "type": "function"
    },
    {
      "inputs": [
        {
          "internalType": "uint256",
          "name": "campaignId",
          "type": "uint256"
        }
      ],
      "name": "getCampaignDetails",
      "outputs": [
        {
          "internalType": "string",
          "name": "name",
          "type": "string"
        },
        {
          "internalType": "uint256",
          "name": "goal",
          "type": "uint256"
        },
        {
          "internalType": "uint256",
          "name": "maxContribution",
          "type": "uint256"
        },
        {
          "internalType": "uint256",
          "name": "maxContributor",
          "type": "uint256"
        },
        {
          "internalType": "uint256",
          "name": "duration",
          "type": "uint256"
        },
        {
          "internalType": "uint256",
          "name": "startTime",
          "type": "uint256"
        },
        {
          "internalType": "uint256",
          "name": "endTime",
          "type": "uint256"
        },
        {
          "internalType": "bool",
          "name": "isOpen",
          "type": "bool"
        },
        {
          "internalType": "address[]",
          "name": "contributors",
          "type": "address[]"
        },
        {
          "internalType": "uint256[]",
          "name": "contributions",
          "type": "uint256[]"
        }
      ],
      "stateMutability": "view",
      "type": "function"
    },
    {
      "inputs": [
        {
          "internalType": "address",
          "name": "account",
          "type": "address"
        }
      ],
      "name": "getContributorStatus",
      "outputs": [
        {
          "internalType": "bool",
          "name": "",
          "type": "bool"
        },
        {
          "internalType": "uint256",
          "name": "",
          "type": "uint256"
        }
      ],
      "stateMutability": "view",
      "type": "function"
    },
    {
      "inputs": [
        {
          "internalType": "uint256",
          "name": "campaignId",
          "type": "uint256"
        }
      ],
      "name": "getContributors",
      "outputs": [
        {
          "internalType": "address[]",
          "name": "",
          "type": "address[]"
        }
      ],
      "stateMutability": "view",
      "type": "function"
    },
    {
      "inputs": [],
      "name": "owner",
      "outputs": [
        {
          "internalType": "address",
          "name": "",
          "type": "address"
        }
      ],
      "stateMutability": "view",
      "type": "function"
    },
    {
      "inputs": [
        {
          "internalType": "uint256",
          "name": "campaignId",
          "type": "uint256"
        }
      ],
      "name": "refund",
      "outputs": [],
      "stateMutability": "nonpayable",
      "type": "function"
    },
    {
      "inputs": [
        {
          "internalType": "address",
          "name": "user",
          "type": "address"
        }
      ],
      "name": "removeWithlistedUser",
      "outputs": [],
      "stateMutability": "nonpayable",
      "type": "function"
    },
    {
      "inputs": [],
      "name": "renounceOwnership",
      "outputs": [],
      "stateMutability": "nonpayable",
      "type": "function"
    },
    {
      "inputs": [
        {
          "internalType": "address",
          "name": "newOwner",
          "type": "address"
        }
      ],
      "name": "transferOwnership",
      "outputs": [],
      "stateMutability": "nonpayable",
      "type": "function"
    },
    {
      "inputs": [
        {
          "internalType": "uint256",
          "name": "campaignId",
          "type": "uint256"
        },
        {
          "internalType": "address",
          "name": "to",
          "type": "address"
        },
        {
          "internalType": "uint256",
          "name": "amount",
          "type": "uint256"
        }
      ],
      "name": "withdrawToken",
      "outputs": [],
      "stateMutability": "nonpayable",
      "type": "function"
    }
  ],
  "bytecode": "0x608060405234801561001057600080fd5b5060405161196538038061196583398101604081905261002f9161016d565b806001600160a01b03811661005f57604051631e4fbdf760e01b8152600060048201526024015b60405180910390fd5b61006881610094565b50600180546001600160a01b0319166001600160a01b03841617905561008d336100e4565b50506101a0565b600080546001600160a01b038381166001600160a01b0319831681178455604051919092169283917f8be0079c531659141344cd1fd0a4f28419497f9722a3daafe3b4186f6b6457e09190a35050565b6100ec610122565b6001600160a01b03811661011657604051631e4fbdf760e01b815260006004820152602401610056565b61011f81610094565b50565b6000546001600160a01b0316331461014f5760405163118cdaa760e01b8152336004820152602401610056565b565b80516001600160a01b038116811461016857600080fd5b919050565b6000806040838503121561018057600080fd5b61018983610151565b915061019760208401610151565b90509250929050565b6117b6806101af6000396000f3fe608060405234801561001057600080fd5b50600436106100f55760003560e01c80638c59091711610097578063d993de6211610066578063d993de62146101f3578063e597d6fd1461021c578063e667546514610246578063f2fde38b1461025957600080fd5b80638c5909171461019f5780638da5cb5b146101b2578063b0e1c1e1146101cd578063d108c9bd146101e057600080fd5b8063686ef4f9116100d3578063686ef4f91461016057806368a6773b146101735780636caa921814610186578063715018a61461019757600080fd5b8063141961bc146100fa578063278ecde11461012b5780633c1ab00f14610140575b600080fd5b61010d6101083660046111fa565b61026c565b60405161012299989796959493929190611259565b60405180910390f35b61013e6101393660046111fa565b610353565b005b61015361014e3660046111fa565b6104e9565b60405161012291906112f3565b61013e61016e366004611329565b61056f565b61013e610181366004611344565b6105c3565b600254604051908152602001610122565b61013e6107fe565b61013e6101ad36600461137a565b610812565b6000546040516001600160a01b039091168152602001610122565b61013e6101db3660046111fa565b610a6a565b61013e6101ee366004611329565b610bab565b6102066102013660046111fa565b610bfc565b6040516101229a9998979695949392919061139c565b61022f61022a366004611329565b610e3a565b604080519215158352602083019190915201610122565b61013e610254366004611454565b610ead565b61013e610267366004611329565b611031565b6002818154811061027c57600080fd5b60009182526020909120600b909102018054600182018054919350906102a19061152a565b80601f01602080910402602001604051908101604052809291908181526020018280546102cd9061152a565b801561031a5780601f106102ef5761010080835404028352916020019161031a565b820191906000526020600020905b8154815290600101906020018083116102fd57829003601f168201915b50505050600283015460038401546004850154600586015460068701546007880154600890980154969794969395509193909260ff1689565b60006002828154811061036857610368611564565b60009182526020909120600b90910201600881015490915060ff16156103ce5760405162461bcd60e51b815260206004820152601660248201527521b0b6b830b4b3b71034b99039ba34b6361037b832b760511b60448201526064015b60405180910390fd5b80600701544210156104225760405162461bcd60e51b815260206004820152601960248201527f43616d706169676e206973206e6f7420656e646564207965740000000000000060448201526064016103c5565b336000908152600a82016020526040902054806104815760405162461bcd60e51b815260206004820152601960248201527f4e6f20636f6e747269627574696f6e20746f20726566756e640000000000000060448201526064016103c5565b336000818152600a840160205260408120556001546104ac916001600160a01b03909116908361106f565b604051818152339084907ffc8dc45aafeb84bf841ffa6c1b48653bea5b43662ab6685b9683e2e5b72fc74f906020015b60405180910390a3505050565b6060600282815481106104fe576104fe611564565b90600052602060002090600b020160090180548060200260200160405190810160405280929190818152602001828054801561056357602002820191906000526020600020905b81546001600160a01b03168152600190910190602001808311610545575b50505050509050919050565b6105776110d3565b6001600160a01b038116600081815260036020526040808220805460ff19166001179055517f2f984c5f343ddeb366132b75d35091be7442723f3cd43d3d9a4d5945dde640189190a250565b3360009081526003602052604090205460ff166106145760405162461bcd60e51b815260206004820152600f60248201526e139bdd081dda1a5d195b1a5cdd1959608a1b60448201526064016103c5565b60025483106106655760405162461bcd60e51b815260206004820152601760248201527f43616d706169676e20646f6573206e6f7420657869737400000000000000000060448201526064016103c5565b60006002848154811061067a5761067a611564565b60009182526020909120600b90910201600881015490915060ff16156106db5760405162461bcd60e51b815260206004820152601660248201527521b0b6b830b4b3b71034b99039ba34b6361037b832b760511b60448201526064016103c5565b806007015442101561072f5760405162461bcd60e51b815260206004820152601f60248201527f43616d706169676e206475726174696f6e20686173206e6f7420656e6465640060448201526064016103c5565b6001546040516370a0823160e01b81523060048201526001600160a01b03909116906370a0823190602401602060405180830381865afa158015610777573d6000803e3d6000fd5b505050506040513d601f19601f8201168201806040525081019061079b919061157a565b8211156107e15760405162461bcd60e51b8152602060048201526014602482015273496e73756666696369656e742062616c616e636560601b60448201526064016103c5565b6001546107f8906001600160a01b0316848461106f565b50505050565b6108066110d3565b6108106000611100565b565b60006002838154811061082757610827611564565b60009182526020909120600b90910201600881015490915060ff1661088e5760405162461bcd60e51b815260206004820152601960248201527f43616d706169676e206973206e6f7420617661696c61626c650000000000000060448201526064016103c5565b806007015442106108d65760405162461bcd60e51b815260206004820152601260248201527110d85b5c185a59db881a185cc8195b99195960721b60448201526064016103c5565b6003810154336000908152600a830160205260409020546108f8908490611593565b11156109465760405162461bcd60e51b815260206004820152601860248201527f45786365656473206d617820636f6e747269627574696f6e000000000000000060448201526064016103c5565b60048101546009820154108061096c5750336000908152600a8201602052604090205415155b6109b85760405162461bcd60e51b815260206004820152601860248201527f4d617820636f6e7472696275746f72732072656163686564000000000000000060448201526064016103c5565b336000908152600a8201602052604081205490036109f857600981018054600181018255600091825260209091200180546001600160a01b031916331790555b336000908152600a8201602052604081208054849290610a19908490611593565b9091555050600154610a36906001600160a01b0316333085611150565b604051828152339084907f0a4a91237423e0a1766a761c7cb029311d8b95d6b1b81db1b949a70c98b4e08e906020016104dc565b610a726110d3565b600060028281548110610a8757610a87611564565b60009182526020909120600b90910201600881015490915060ff16610aee5760405162461bcd60e51b815260206004820152601a60248201527f43616d706169676e20697320616c726561647920636c6f73656400000000000060448201526064016103c5565b60088101805460ff191690556001546040516370a0823160e01b81523060048201526000916001600160a01b0316906370a0823190602401602060405180830381865afa158015610b43573d6000803e3d6000fd5b505050506040513d601f19601f82011682018060405250810190610b67919061157a565b9050827f8458b28c04c9dc08e322a4e1d72faf95d899a917357387ceb5f95cb0d36a22ab8360010183604051610b9e9291906115ba565b60405180910390a2505050565b610bb36110d3565b6001600160a01b038116600081815260036020526040808220805460ff19169055517f9691e381cfab941d00966c6570e14fe0c5fc2a020436fc278179fcc8b2646c6a9190a250565b60606000806000806000806000606080600060028c81548110610c2157610c21611564565b90600052602060002090600b020190506000816009018054905067ffffffffffffffff811115610c5357610c5361143e565b604051908082528060200260200182016040528015610c7c578160200160208202803683370190505b50905060005b6009830154811015610cf55782600a016000846009018381548110610ca957610ca9611564565b60009182526020808320909101546001600160a01b031683528201929092526040019020548251839083908110610ce257610ce2611564565b6020908102919091010152600101610c82565b50816001018260020154836003015484600401548560050154866006015487600701548860080160009054906101000a900460ff168960090189898054610d3b9061152a565b80601f0160208091040260200160405190810160405280929190818152602001828054610d679061152a565b8015610db45780601f10610d8957610100808354040283529160200191610db4565b820191906000526020600020905b815481529060010190602001808311610d9757829003601f168201915b5050505050995081805480602002602001604051908101604052809291908181526020018280548015610e1057602002820191906000526020600020905b81546001600160a01b03168152600190910190602001808311610df2575b505050505091509b509b509b509b509b509b509b509b509b509b5050509193959799509193959799565b60008060005b600254811015610ea157600060028281548110610e5f57610e5f611564565b600091825260208083206001600160a01b0389168452600a600b9093020191909101905260409020541115610e9957600194909350915050565b600101610e40565b50600093849350915050565b610eb56110d3565b60008411610f055760405162461bcd60e51b815260206004820152601e60248201527f476f616c206d7573742062652067726561746572207468616e207a65726f000060448201526064016103c5565b60008111610f605760405162461bcd60e51b815260206004820152602260248201527f4475726174696f6e206d7573742062652067726561746572207468616e207a65604482015261726f60f01b60648201526084016103c5565b6002805460018101808355600083815291929083908110610f8357610f83611564565b60009182526020909120600b90910201828155905060018101610fa6888261169c565b50600281018690556003810185905560048101849055600581018390554260068201819055610fd6908490611593565b600782015560088101805460ff1916600117905560405182907f02fe3fddd43aad14ae5c30d5d694f19ecb065dfde85bb591b91e8af1448724d290611020908a908a90889061175b565b60405180910390a250505050505050565b6110396110d3565b6001600160a01b03811661106357604051631e4fbdf760e01b8152600060048201526024016103c5565b61106c81611100565b50565b6040516001600160a01b038381166024830152604482018390526110ce91859182169063a9059cbb906064015b604051602081830303815290604052915060e01b6020820180516001600160e01b038381831617835250505050611189565b505050565b6000546001600160a01b031633146108105760405163118cdaa760e01b81523360048201526024016103c5565b600080546001600160a01b038381166001600160a01b0319831681178455604051919092169283917f8be0079c531659141344cd1fd0a4f28419497f9722a3daafe3b4186f6b6457e09190a35050565b6040516001600160a01b0384811660248301528381166044830152606482018390526107f89186918216906323b872dd9060840161109c565b600080602060008451602086016000885af1806111ac576040513d6000823e3d81fd5b50506000513d915081156111c45780600114156111d1565b6001600160a01b0384163b155b156107f857604051635274afe760e01b81526001600160a01b03851660048201526024016103c5565b60006020828403121561120c57600080fd5b5035919050565b6000815180845260005b818110156112395760208185018101518683018201520161121d565b506000602082860101526020601f19601f83011685010191505092915050565b8981526101206020820152600061127461012083018b611213565b6040830199909952506060810196909652608086019490945260a085019290925260c084015260e083015215156101009091015292915050565b600081518084526020840193506020830160005b828110156112e95781516001600160a01b03168652602095860195909101906001016112c2565b5093949350505050565b60208152600061130660208301846112ae565b9392505050565b80356001600160a01b038116811461132457600080fd5b919050565b60006020828403121561133b57600080fd5b6113068261130d565b60008060006060848603121561135957600080fd5b833592506113696020850161130d565b929592945050506040919091013590565b6000806040838503121561138d57600080fd5b50508035926020909101359150565b610140815260006113b161014083018d611213565b8b60208401528a60408401528960608401528860808401528760a08401528660c084015285151560e08401528281036101008401526113f081866112ae565b8381036101208501528451808252602080870193509091019060005b8181101561142a57835183526020938401939092019160010161140c565b50909e9d5050505050505050505050505050565b634e487b7160e01b600052604160045260246000fd5b600080600080600060a0868803121561146c57600080fd5b853567ffffffffffffffff81111561148357600080fd5b8601601f8101881361149457600080fd5b803567ffffffffffffffff8111156114ae576114ae61143e565b604051601f8201601f19908116603f0116810167ffffffffffffffff811182821017156114dd576114dd61143e565b6040528181528282016020018a10156114f557600080fd5b816020840160208301376000602092820183015299908801359850604088013597606081013597506080013595509350505050565b600181811c9082168061153e57607f821691505b60208210810361155e57634e487b7160e01b600052602260045260246000fd5b50919050565b634e487b7160e01b600052603260045260246000fd5b60006020828403121561158c57600080fd5b5051919050565b808201808211156115b457634e487b7160e01b600052601160045260246000fd5b92915050565b6040815260008084546115cc8161152a565b80604086015260018216600081146115eb57600181146116075761163b565b60ff1983166060870152606082151560051b870101935061163b565b87600052602060002060005b8381101561163257815488820160600152600190910190602001611613565b87016060019450505b5050506020929092019290925292915050565b601f8211156110ce57806000526020600020601f840160051c810160208510156116755750805b601f840160051c820191505b818110156116955760008155600101611681565b5050505050565b815167ffffffffffffffff8111156116b6576116b661143e565b6116ca816116c4845461152a565b8461164e565b6020601f8211600181146116fe57600083156116e65750848201515b600019600385901b1c1916600184901b178455611695565b600084815260208120601f198516915b8281101561172e578785015182556020948501946001909201910161170e565b508482101561174c5786840151600019600387901b60f8161c191681555b50505050600190811b01905550565b60608152600061176e6060830186611213565b6020830194909452506040015291905056fea26469706673582212209212e012b51157dc2b3a5183e5f9fb6d6e2c469dec1e52bb02e6d5cd782d92d064736f6c634300081b0033",
  "linkReferences": {},
  "deployedLinkReferences": {}
}